{
    "_format": "hh-sol-artifact-1",
    "contractName": "CakeBoard",
    "sourceName": "contracts/CakeBoard.sol",
    "abi": [
        {
            "inputs": [],
            "stateMutability": "payable",
            "type": "constructor"
        },
        {
            "anonymous": false,
            "inputs": [
                {
                    "indexed": true,
                    "internalType": "address",
                    "name": "from",
                    "type": "address"
                },
                {
                    "indexed": false,
                    "internalType": "uint256",
                    "name": "timestamp",
                    "type": "uint256"
                },
                {
                    "indexed": false,
                    "internalType": "string",
                    "name": "message",
                    "type": "string"
                },
                {
                    "indexed": false,
                    "internalType": "string",
                    "name": "name",
                    "type": "string"
                }
            ],
            "name": "CakeBought",
            "type": "event"
        },
        {
            "inputs": [
                {
                    "internalType": "string",
                    "name": "_message",
                    "type": "string"
                },
                {
                    "internalType": "string",
                    "name": "_name",
                    "type": "string"
                },
                {
                    "internalType": "uint256",
                    "name": "_payAmount",
                    "type": "uint256"
                }
            ],
            "name": "buyCake",
            "outputs": [],
            "stateMutability": "payable",
            "type": "function"
        },
        {
            "inputs": [],
            "name": "getAllCakes",
            "outputs": [
                {
                    "components": [
                        {
                            "internalType": "address",
                            "name": "offerer",
                            "type": "address"
                        },
                        {
                            "internalType": "string",
                            "name": "message",
                            "type": "string"
                        },
                        {
                            "internalType": "string",
                            "name": "name",
                            "type": "string"
                        },
                        {
                            "internalType": "uint256",
                            "name": "timestamp",
                            "type": "uint256"
                        }
                    ],
                    "internalType": "struct CakeBoard.Cake[]",
                    "name": "",
                    "type": "tuple[]"
                }
            ],
            "stateMutability": "view",
            "type": "function"
        },
        {
            "inputs": [],
            "name": "getNumberOfCakesBought",
            "outputs": [
                {
                    "internalType": "uint256",
                    "name": "",
                    "type": "uint256"
                }
            ],
            "stateMutability": "view",
            "type": "function"
        },
        {
            "inputs": [],
            "name": "owner",
            "outputs": [
                {
                    "internalType": "address payable",
                    "name": "",
                    "type": "address"
                }
            ],
            "stateMutability": "view",
            "type": "function"
        }
    ],
    "bytecode": "0x6080604052600180546001600160a01b031916331790556109a9806100256000396000f3fe60806040526004361061003f5760003560e01c8063261b7cae146100445780632a95f07814610059578063326a18ca146100845780638da5cb5b146100a6575b600080fd5b61005761005236600461069f565b6100c8565b005b34801561006557600080fd5b5061006e610363565b60405161007b919061076b565b60405180910390f35b34801561009057600080fd5b50610099610506565b60405161007b919061089e565b3480156100b257600080fd5b506100bb61050c565b60405161007b9190610757565b662386f26fc10000808211156100f95760405162461bcd60e51b81526004016100f090610839565b60405180910390fd5b600160008082825461010b91906108dc565b92505081905550610134604051806060016040528060228152602001610952602291393361051b565b6040805160808101825233815260208082018781529282018690524260608301526002805460018101825560009190915282517f405787fa12a823e0f2b7631cc41b3ba8828b3321ca811111fa75cd3aa3bb5ace600490920291820180546001600160a01b0319166001600160a01b03909216919091178155935180519394936101e7937f405787fa12a823e0f2b7631cc41b3ba8828b3321ca811111fa75cd3aa3bb5acf909301929190910190610585565b5060408201518051610203916002840191602090910190610585565b50606091909101516003909101556001546040516000916001600160a01b031690849061022f90610754565b60006040518083038185875af1925050503d806000811461026c576040519150601f19603f3d011682016040523d82523d6000602084013e610271565b606091505b50506001546040519192506000916001600160a01b0390911690479061029690610754565b60006040518083038185875af1925050503d80600081146102d3576040519150601f19603f3d011682016040523d82523d6000602084013e6102d8565b606091505b50509050816102f95760405162461bcd60e51b81526004016100f090610870565b806103165760405162461bcd60e51b81526004016100f090610870565b336001600160a01b03167fd3e43e546476682fe2bbc6b81ce8f132647ca89cfe964a789ff0d1a83a16f0d7428888604051610353939291906108a7565b60405180910390a2505050505050565b60606002805480602002602001604051908101604052809291908181526020016000905b828210156104fd57600084815260209081902060408051608081019091526004850290910180546001600160a01b0316825260018101805492939192918401916103d090610900565b80601f01602080910402602001604051908101604052809291908181526020018280546103fc90610900565b80156104495780601f1061041e57610100808354040283529160200191610449565b820191906000526020600020905b81548152906001019060200180831161042c57829003601f168201915b5050505050815260200160028201805461046290610900565b80601f016020809104026020016040519081016040528092919081815260200182805461048e90610900565b80156104db5780601f106104b0576101008083540402835291602001916104db565b820191906000526020600020905b8154815290600101906020018083116104be57829003601f168201915b5050505050815260200160038201548152505081526020019060010190610387565b50505050905090565b60005490565b6001546001600160a01b031681565b610560828260405160240161053192919061080f565b60408051601f198184030181529190526020810180516001600160e01b031663319af33360e01b179052610564565b5050565b80516a636f6e736f6c652e6c6f67602083016000808483855afa5050505050565b82805461059190610900565b90600052602060002090601f0160209004810192826105b357600085556105f9565b82601f106105cc57805160ff19168380011785556105f9565b828001600101855582156105f9579182015b828111156105f95782518255916020019190600101906105de565b50610605929150610609565b5090565b5b80821115610605576000815560010161060a565b600082601f83011261062e578081fd5b813567ffffffffffffffff808211156106495761064961093b565b604051601f8301601f19168101602001828111828210171561066d5761066d61093b565b604052828152848301602001861015610684578384fd5b82602086016020830137918201602001929092529392505050565b6000806000606084860312156106b3578283fd5b833567ffffffffffffffff808211156106ca578485fd5b6106d68783880161061e565b945060208601359150808211156106eb578384fd5b506106f88682870161061e565b925050604084013590509250925092565b60008151808452815b8181101561072e57602081850181015186830182015201610712565b8181111561073f5782602083870101525b50601f01601f19169290920160200192915050565b90565b6001600160a01b0391909116815260200190565b60208082528251828201819052600091906040908185019080840286018301878501865b8381101561080157888303603f19018552815180516001600160a01b03168452878101516080898601819052906107c882870182610709565b91505087820151858203898701526107e08282610709565b6060938401519690930195909552509487019492509086019060010161078f565b509098975050505050505050565b6000604082526108226040830185610709565b905060018060a01b03831660208301529392505050565b60208082526019908201527f4e6f7420656e6f75676820457468657220666f722063616b6500000000000000604082015260600190565b6020808252601490820152734661696c656420746f2073656e64206d6f6e657960601b604082015260600190565b90815260200190565b6000848252606060208301526108c06060830185610709565b82810360408401526108d28185610709565b9695505050505050565b600082198211156108fb57634e487b7160e01b81526011600452602481fd5b500190565b60028104600182168061091457607f821691505b6020821081141561093557634e487b7160e01b600052602260045260246000fd5b50919050565b634e487b7160e01b600052604160045260246000fdfe257320686173206a75737420626f756768742061207069656365206f662063616b65a2646970667358221220a660247d353bcbb91c18adc8c0b5b3b4c1e61c20049f2797f3e2e3f8819c196564736f6c63430008000033",
    "linkReferences": {},
    "deployedLinkReferences": {}
}